:100000000EC013C012C011C010C00FC00EC00DC072
:100010000CC00BC00AC009C008C007C006C011242C
:100020001FBECFEDCDBF40D09AC0EACFF89417BA2B
:10003000B99AB898BA9818BA83E987B983E886B9A3
:1000400013B878940895BC01B299FECFC198B29BC1
:10005000FECF80E090E0B299FECFC19AB29BFECF76
:10006000019680329105B9F741E050E020E030E0A0
:10007000B299FECFCA0186239723892B89F0C19AB2
:10008000B29BFECF2F5F3F4F2031310559F0440F17
:10009000551FB299EDCFCA0186239723892B79F793
:1000A000C198EECFC1980895DF92EF92FF920F931F
:1000B0001F93CF93DF93BADF28E833E149E150E0A3
:1000C000CA010197F1F721503040D1F7EE24FF2407
:1000D000870160E070E020E1D22E603271058CF083
:1000E00095E015950795F794E7949A95D1F7C70190
:1000F000AADFEE24FF24870160E070E06032710522
:100100007CF7349B03C086B18D2586B9369A369923
:10011000FECF84B190E0A0E0B0E025B1D22FC0E0E6
:100120009E01442737FD4095542F282B392B4A2B0D
:100130005B2BE20EF31E041F151F6F5F7F4FCDCFA9
:10014000C19A0895C198089586B38170089586B3C1
:1001500090E0969587959695879581700895F89487
:02016000FFCFCF
:00000001FF
