:1000000054C06EC06DC06CC06BC06AC069C068C0AF
:1000100067C066C065C064C063C062C061C060C0C4
:100020005FC05EC05DC0C041C1A0C242C3A1C4E008
:10003000C545A8A2C6A3C7A4C8A5C9A6CA4BCBA735
:10004000CC4DCD48CE4FCFA8D050D143D254D3A918
:10005000D4AAD558D6E1D7ABD8ACD9E2DAADDBAE6D
:10006000DC62DDAFDEB0DFB1E061E1B2E2B3E3B4A8
:10007000E4E3E565B8B5E6B6E7B7E8B8E9B9EABAE2
:10008000EBBBECBCEDBDEE6FEFBEF070F163F2BF09
:10009000F379F4E4F578F6E5F7C0F8C1F9E6FAC2C9
:1000A000FBC3FCC4FDC5FEC6FFC711241FBECFE5C0
:1000B000D4E0DEBFCDBF10E0A0E6B0E0EEE2F2E1BA
:1000C00002C005900D92A037B107D9F710E0A0E764
:1000D000B0E001C01D92A13AB107E1F723D1A5C854
:1000E0008FCFF89417BA11BA14BA8E9ABB9ABD9AE8
:1000F000BC9818BA12BA15BA96987894089530E058
:1001000020E04AEF50E0C59ACA010197F1F786B3A3
:1001100090E0929582958F7089279F7089278170D2
:10012000C598FA013197F1F7222329F4882341F485
:1001300030E021E0E8CF882329F430E020E0E3CF6D
:1001400030E0E1CF3F5F3032F1F641E050E060E077
:1001500070E020E030E0AAEFB0E002C0440F551F8D
:10016000C59AFD013197F1F786B3C598FD01319726
:10017000F1F784FF02C0642B752B2F5F3F4F2031B6
:10018000310561F7CB010895C39A0895C398089586
:10019000C59A0895C598089586B390E09295829582
:1001A0008F7089279F708927817008952F923F92C1
:1001B0004F925F926F927F928F929F92AF92BF9277
:1001C000CF92DF92EF92FF920F931F93DF93CF9323
:1001D00000D000D000D0CDB7DEB7209074003090B2
:1001E0007500409076005090770020927800309211
:1001F000790040927A0050927B00209180003091EB
:100200008100409182005091830029833A834B837F
:100210005C83209384003093850040938600509344
:100220008700E4E7F0E012910291F290E290E09210
:100230007400F0927500009376001093770040E808
:1002400050E0DA01DE90CE90BE90AE90BE83AD83DA
:10025000A0928000B0928100C0928200D092830070
:10026000608371838283938322E73CEB44EA5CE3FF
:10027000B3D43B014C01C801B70122E73CEB44E297
:100280005DE3AAD47B018C01C601B50121E73FECF7
:1002900047EC5FEBA1D49B01AC01C801B70110D3BF
:1002A0009B01AC01C401B3010CD35B016C01C20121
:1002B000B10122E73CEB44EA5CE38ED47B018C0184
:1002C00069817A818B819C812DE93FE244E25FE381
:1002D00083D49B01AC01C801B701F2D2A6019501FC
:1002E000F0D29B01AC01ED81FE81208331834283FA
:1002F000538326960FB6F894DEBF0FBECDBFCF91C5
:10030000DF911F910F91FF90EF90DF90CF90BF9002
:10031000AF909F908F907F906F905F904F903F90A5
:100320002F9008956F927F928F929F92AF92BF927B
:10033000CF92DF92EF92FF920F931F93CF93DF93B1
:10034000D0DE28E833E149E150E0CA010197F1F736
:1003500021503040D1F7C9D0C8E8D0E0A0E66A2EDD
:10036000A0E07A2EF7E68F2EF0E09F2EE4EDAE2E81
:10037000E0E3BE2EC4DEA0E0B0E0BC01CD019ED320
:100380002AE037ED43E250E427D420E030EC4FE799
:1003900054E4FBD220E030E24BE456E4F6D228E409
:1003A00039EC48E15BE418D401DF7B018C0100D01B
:1003B00000D000D0CDB6DEB60894C11CD11CEDB77C
:1003C000FEB7D283C183F6017382628246D3F601FF
:1003D0007583648364D48DB79EB706960FB6F89480
:1003E0009EBF0FBE8DBFCE01B7D000D000D000D0D1
:1003F000CDB6DEB60894C11CD11CEDB7FEB7D283D2
:10040000C183F60193828282C801B7012FE632E1EF
:1004100043E05BE3E1D39B01AC01C801B701DCD34E
:1004200020E030E040E05FE3D7D31CD3F6017583D2
:10043000648335D48DB79EB706960FB6F8949EBFE9
:100440000FBE8DBFCE01F5D0C5010197F1F792CF58
:10045000C798C698C198C098959A28B3982F969532
:1004600096959695979599279795922B98BB98B3C3
:10047000282F2695269530E021703070002436957F
:1004800027950794369527950794322F202D922B88
:1004900098BB98B3282F269530E021703070220F3A
:1004A000331F922B98BB98B38170982B98BB81E235
:1004B000982F9A95F1F795988A95F1F708951F93DB
:1004C000182F979A82958F70C3DF812F8F70C0DFAE
:1004D0001F9108951F93182F979882958F70B8DFFA
:1004E000812F8F70B5DF1F9108950F931F938F9AFF
:1004F0008D9ABF9ABE9AB99AB89A88E893E1019703
:10050000F1F7979883E0A4DF82EE94E00197F1F78A
:1005100083E09EDF82E48A95F1F783E099DF82E051
:1005200097DF8CE2D7DF0AEF10E0C8010197F1F7FF
:1005300088E0D0DFC8010197F1F781E0CBDFC80187
:100540000197F1F786E0C6DF8CE0C4DFC8010197B0
:10055000F1F71F910F910895AF92BF92CF92DF9262
:10056000EF92FF920F931F93DF93CF93CDB7DEB738
:1005700060970FB6F894DEBF0FBECDBFE82E192FDF
:1005800080E8A8DF81E28A95F1F76E010894C11C2A
:10059000D11C8E2D912F9C01A901D60161E1A62EBF
:1005A000B12CAC0EBD1EFA0120812C9380E090E0AE
:1005B00004C002968438910559F0FC01EA5DFF4FB2
:1005C000E4912E17B1F7895D9F4FFC0184918C93C4
:1005D0004F5F5F4F1196AA15BB0529F78E2D912FFE
:1005E0009C018901F02EFE18F80180818823E9F032
:1005F000F60181916F0163DF0F5F1F4FAC14BD04E3
:1006000089F760960FB6F894DEBF0FBECDBFCF91CD
:10061000DF911F910F91FF90EF90DF90CF90BF90EF
:10062000AF90089580E24BDFF394FFE0FF15D0F721
:10063000E8CFAF92BF92CF92DF92EF92FF920F93EB
:100640001F93DF93CF93CDB7DEB760970FB6F894C3
:10065000DEBF0FBECDBFE82E192F88EA3BDF81E257
:100660008A95F1F76E010894C11CD11C8E2D912F33
:100670009C01A901D60171E1A72EB12CAC0EBD1EC3
:10068000FA0120812C9380E090E004C00296843827
:10069000910559F0FC01EA5DFF4FE4912E17B1F787
:1006A000895D9F4FFC0184918C934F5F5F4F119642
:1006B000AA15BB0529F78E2D912F9C018901F02EDB
:1006C000FE18F80180818823E9F0F60181916F011D
:1006D000F6DE0F5F1F4FAC14BD0489F760960FB6AE
:1006E000F894DEBF0FBECDBFCF91DF911F910F9168
:1006F000FF90EF90DF90CF90BF90AF90089580E291
:10070000DEDEF394FFE0FF15D0F7E8CFAF92BF92A3
:10071000CF92DF92EF92FF920F931F93DF93CF93CD
:10072000CDB7DEB760970FB6F894DEBF0FBECDBF72
:10073000E82E192F80E8CEDE81E28A95F1F76E016E
:100740000894C11CD11C8E2D912FFC01AF01D60144
:10075000E1E1AE2EB12CAC0EBD1EFA0124912C931A
:1007600080E090E004C002968438910559F0FC01C5
:10077000EA5DFF4FE4912E17B1F7895D9F4FFC01B1
:1007800084918C934F5F5F4F1196AA15BB0529F793
:100790008E2D912FFC018F01F02EFE18F80184910F
:1007A0008823E9F0F60181916F0189DE0F5F1F4F09
:1007B000AC14BD0489F760960FB6F894DEBF0FBE87
:1007C000CDBFCF91DF911F910F91FF90EF90DF9000
:1007D000CF90BF90AF90089580E271DEF394FFE078
:1007E000FF15D0F7E8CFAF92BF92CF92DF92EF9292
:1007F000FF920F931F93DF93CF93CDB7DEB7609730
:100800000FB6F894DEBF0FBECDBFE82E192F88EAD1
:1008100061DE81E28A95F1F76E010894C11CD11C5A
:100820008E2D912FFC01AF01D601F1E1AF2EB12C3D
:10083000AC0EBD1EFA0124912C9380E090E004C020
:1008400002968438910559F0FC01EA5DFF4FE4916E
:100850002E17B1F7895D9F4FFC0184918C934F5FF8
:100860005F4F1196AA15BB0529F78E2D912FFC011C
:100870008F01F02EFE18F80184918823E9F0F6012B
:1008800081916F011CDE0F5F1F4FAC14BD0489F70F
:1008900060960FB6F894DEBF0FBECDBFCF91DF914B
:1008A0001F910F91FF90EF90DF90CF90BF90AF908E
:1008B000089580E204DEF394FFE0FF15D0F7E8CF5F
:1008C0005058BB27AA270ED04DC13ED130F043D19E
:1008D00020F031F49F3F11F41EF433C10EF4E09583
:1008E000E7FB29C1E92F4FD180F3BA1762077307DD
:1008F0008407950718F071F49EF567C10EF4E09532
:100900000B2EBA2FA02D0B01B90190010C01CA01C9
:10091000A0011124FF27591B99F0593F50F4503E74
:1009200068F11A16F040A22F232F342F4427585F66
:10093000F3CF469537952795A795F0405395C9F77E
:100940007EF41F16BA0B620B730B840BBAF0915036
:10095000A1F0FF0FBB1F661F771F881FC2F70EC0D5
:10096000BA0F621F731F841F48F4879577956795A8
:10097000B795F7959E3F08F0B3CF9395880F08F091
:100980009927EE0F9795879508950CD0EBC0E3D08B
:1009900040F0DAD030F021F45F3F19F0CCC05111B3
:1009A00015C1CFC0F0D098F39923C9F35523B1F303
:1009B000951B550BBB27AA2762177307840738F0CE
:1009C0009F5F5F4F220F331F441FAA1FA9F333D02D
:1009D0000E2E3AF0E0E830D091505040E695001CE1
:1009E000CAF729D0FE2F27D0660F771F881FBB1F9D
:1009F000261737074807AB07B0E809F0BB0B802D77
:100A0000BF01FF2793585F4F2AF09E3F510568F0C2
:100A100092C0DCC05F3FECF3983EDCF3869577959F
:100A20006795B795F7959F5FC9F7880F911D9695C4
:100A3000879597F90895E1E0660F771F881FBB1F20
:100A4000621773078407BA0720F0621B730B840BCD
:100A5000BA0BEE1F88F7E095089504D06894B111A1
:100A6000B5C0089598D088F09F5790F0B92F992776
:100A7000B751A0F0D1F0660F771F881F991F1AF0A9
:100A8000BA95C9F712C0B13081F09FD0B1E0089596
:100A90009CC0672F782F8827B85F39F0B93FCCF317
:100AA000869577956795B395D9F73EF4909580959F
:100AB000709561957F4F8F4F9F4F0895E89409C0BF
:100AC00097FB3EF490958095709561957F4F8F4F81
:100AD0009F4F9923A9F0F92F96E9BB279395F69597
:100AE000879577956795B795F111F8CFFAF4BB0F15
:100AF00011F460FF1BC06F5F7F4F8F4F9F4F16C079
:100B0000882311F096E911C0772321F09EE8872F02
:100B1000762F05C0662371F096E8862F70E060E0BE
:100B20002AF09A95660F771F881FDAF7880F969537
:100B3000879597F9089597F99F6780E870E060E0DE
:100B400008959FEF80EC089500240A941616170666
:100B500018060906089500240A94121613061406AE
:100B600005060895092E0394000C11F4882352F011
:100B7000BB0F40F4BF2B11F460FF04C06F5F7F4FC9
:100B80008F4F9F4F089557FD9058440F551F59F0B0
:100B90005F3F71F04795880F97FB991F61F09F3F6A
:100BA00079F087950895121613061406551FF2CF93
:100BB0004695F1DF08C0161617061806991FF1CFE3
:100BC00086957105610508940895E894BB2766270A
:100BD0007727CB0197F908950BD0C4CFB5DF28F064
:100BE000BADF18F0952309F0A6CFABCF1124EECFD2
:100BF000CADFA0F3959FD1F3950F50E0551F629F78
:100C0000F001729FBB27F00DB11D639FAA27F00D65
:100C1000B11DAA1F649F6627B00DA11D661F829F8C
:100C20002227B00DA11D621F739FB00DA11D621F71
:100C3000839FA00D611D221F749F3327A00D611D8E
:100C4000231F849F600D211D822F762F6A2F112470
:100C50009F5750408AF0E1F088234AF0EE0FFF1FC3
:100C6000BB1F661F771F881F91505040A9F79E3FFA
:100C7000510570F060CFAACF5F3FECF3983EDCF3F4
:100C8000869577956795B795F795E7959F5FC1F737
:100C9000FE2B880F911D9695879597F90895AEE0E4
:100CA000B0E0E4E5F6E098C20D891E8986E08C8309
:100CB0001A8309838FEF9FE79E838D839E01275EB2
:100CC0003F4FCE0101966F89788DA90109D02F8100
:100CD0003885020F131FF80110822E96E4E098C2A7
:100CE000ABE0B0E0E5E7F6E069C23C012B015A0158
:100CF000FC0117821682838181FD03C06FEF7FEFB5
:100D0000B9C19AE0892E1E010894211C311CF301FF
:100D10002381F20123FD859123FF81912F018823F7
:100D200009F4A5C1853239F423FD859123FF819112
:100D30002F01853221F490E0B301B6D1E8CF982F8E
:100D4000FF24EE249924FFE1FF15D0F09B3269F0D7
:100D50009C3228F4903259F0933291F40EC09D32B7
:100D600049F0903369F441E024C052E0F52A84E070
:100D7000F82A28C098E0F92A25C0E0E1FE2A22C01E
:100D8000F7FC29C0892F80538A3070F4F6FE05C025
:100D9000989C902C1124980E15C0E89CE02C1124EE
:100DA000E80EF0E2FF2A0EC09E3229F4F6FC5FC185
:100DB00040E4F42A07C09C3619F450E8F52A02C032
:100DC000983649F4F20123FD959123FF91912F016B
:100DD000992309F0B8CF892F8554833018F08052B9
:100DE000833038F444E050E0A40EB51E5FE359832D
:100DF0000FC0933631F0933779F0933509F052C034
:100E00001FC0F5018081898342E050E0A40EB51E29
:100E1000610101E010E011C0F501C080D180F6FC55
:100E200003C06FEF7FEF02C0692D70E042E050E039
:100E3000A40EB51EC6012DD18C015FE7F52213C0AB
:100E4000F501C080D180F6FC03C06FEF7FEF02C0D8
:100E5000692D70E042E050E0A40EB51EC6010ED12F
:100E60008C0150E8F52AF3FE06C018C080E290E03D
:100E7000B3011AD1EA948E2D90E008171907B0F348
:100E80000DC0F601F7FC8591F7FE81916F0190E0AE
:100E9000B3010AD1E110EA94015010400115110587
:100EA00081F7E2C0943611F0993661F5F7FE08C07B
:100EB000F501208131814281538184E090E00AC0B4
:100EC000F501808191819C01442737FD4095542F85
:100ED00082E090E0A80EB91E9FE6F92257FF09C0F4
:100EE00050954095309521953F4F4F4F5F4FE0E82B
:100EF000FE2ACA01B901A1012AE030E001D1D82EB1
:100F0000D2183FC0953729F41F2D1F7E2AE030E00C
:100F10001DC01F2D197F9F3661F0903720F4983542
:100F200009F0A5C00FC0903739F0983709F09FC07D
:100F300004C028E030E00AC0106114FD146020E114
:100F400030E004C014FD166020E132E017FF08C055
:100F5000F501608171818281938144E050E008C095
:100F6000F50180819181BC0180E090E042E050E099
:100F7000A40EB51EA101C4D0D82ED2188FE7F82E2A
:100F8000F122F6FE0BC05EEFF522D91438F4F4FE20
:100F900007C0F2FC05C08FEEF82202C01D2D01C073
:100FA000192DF4FE0DC0FE01ED0DF11D8081803381
:100FB00019F499EEF92208C01F5FF2FE05C003C0C4
:100FC0008F2D867809F01F5F0F2DF3FC13C0F0FE04
:100FD0000EC01E1510F09D2C0AC09D2C9E0C911A5F
:100FE0001E2D05C080E290E0B3015ED01F5F1E158C
:100FF000C8F304C01E1510F4E11A01C0EE2404FF6A
:101000000EC080E390E0B3014FD002FF1BC001FD92
:1010100003C088E790E00EC088E590E00BC0802F09
:10102000867881F001FF02C08BE201C080E2F7FC0C
:101030008DE290E0B30138D005C080E390E0B301C9
:1010400033D09A94D914C8F3DA94F101ED0DF11D5F
:10105000808190E0B30128D0DD20B1F705C080E2A7
:1010600090E0B30121D0EA94EE20C9F750CEF3010D
:1010700066817781CB012B96E2E1BCC0FC01059033
:10108000615070400110D8F7809590958E0F9F1F8A
:101090000895FC016150704001900110D8F78095CF
:1010A00090958E0F9F1F08950F931F93CF93DF93FB
:1010B0008C01EB018B8181FF1BC082FF0DC02E8153
:1010C0003F818C819D812817390764F4E881F9817B
:1010D0000193F983E88306C0E885F985802F099597
:1010E000892B31F48E819F8101969F838E8302C06C
:1010F0000FEF1FEFC801DF91CF911F910F9108955E
:10110000FA01AA27283051F1203181F1E8946F9338
:101110006E7F6E5F7F4F8F4F9F4FAF4FB1E03ED0DE
:10112000B4E03CD0670F781F891F9A1FA11D680F7C
:10113000791F8A1F911DA11D6A0F711D811D911DAF
:10114000A11D20D009F468943F912AE0269F112424
:101150003019305D3193DEF6CF010895462F477088
:10116000405D4193B3E00FD0C9F7F6CF462F4F70E3
:10117000405D4A3318F0495D31FD4052419302D041
:10118000A9F7EACFB4E0A6959795879577956795E7
:10119000BA95C9F700976105710508959B01AC01E7
:1011A0000A2E06945795479537952795BA95C9F70E
:1011B000620F731F841F951FA01D08952F923F92E9
:1011C0004F925F926F927F928F929F92AF92BF9257
:1011D000CF92DF92EF92FF920F931F93CF93DF9303
:1011E000CDB7DEB7CA1BDB0B0FB6F894DEBF0FBE60
:1011F000CDBF09942A88398848885F846E847D84AD
:101200008C849B84AA84B984C884DF80EE80FD80AE
:101210000C811B81AA81B981CE0FD11D0FB6F89424
:0E122000DEBF0FBECDBFED010895F894FFCFE5
:10122E00552CC23A256900452CC4E63A25690000C2
:00000001FF
